:1000000012C02BC0B0C029C064C027C026C025C004
:1000100024C023C022C021C020C01FC0BBC01DC03F
:100020001CC01BC01AC011241FBECFE5D4E0DEBF28
:10003000CDBF11E0A0E6B0E0E4EEF7E102C005902C
:100040000D92A630B107D9F711E0A6E0B1E001C0EA
:100050001D92AC32B107E1F701C0D2CFCFE5D4E0B9
:10006000DEBFCDBF09D011DA882321F00EDA882354
:10007000E9F708D3B7D2F7CF89E785BD81E983BD1A
:1000800089B7806489BF1BB81AB896E890BD8FEC19
:1000900089B98FE387BB84EF81BB81EA8FBD82E0A2
:1000A0008EBD96B9979880E0FAD861E0862F02D984
:1000B00060E0862FFFD881E0DFD860E2862F16D976
:1000C00060E0862F0AD910922201109221017894C3
:1000D00008951F920F920FB60F9211242F933F9302
:1000E0004F935F936F937F938F939F93AF93BF9340
:1000F000EF93FF9384B58B5D84BD809127018F5F63
:100100008093270180912701882399F48091280109
:1001100090912901A0912A01B0912B010196A11D76
:10012000B11D8093280190932901A0932A01B093D7
:100130002B0180910D01882329F080912701877080
:1001400009F43BD9FF91EF91BF91AF919F918F91AE
:100150007F916F915F914F913F912F910F900FBEC3
:100160000F901F9018951F920F920FB60F921124A7
:100170008F939F9381E090E09093200180931F01E3
:100180008BB78F778BBF9F918F910F900FBE0F9082
:100190001F9018951F920F920FB60F9211242F9354
:1001A0003F934F938F939F93AF93BF93EF93FF939F
:1001B0008091210190912201892B09F445C0409141
:1001C0000A01E42FFF27EA5FFE4F85B180834423B5
:1001D00011F080E601C081E687B9242F3327F901A9
:1001E000EA5FFE4F80818C3888F4D901A85FBE4F4A
:1001F0008C91813059F4F901E20FF31FED5DFE4F50
:10020000808191810196918380831C92242F3327D2
:10021000F901EA5FFE4F8081813A90F0D901A85F31
:10022000BE4F8C91882361F4F901E20FF31FED5D5D
:10023000FE4F8081918101969183808381E08C9330
:1002400081E0482740930A01FF91EF91BF91AF9160
:100250009F918F914F913F912F910F900FBE0F90D3
:100260001F9018951F93CF93DF93CDB7DEB72197DB
:100270000FB6F894DEBF0FBECDBF10E081E0FCD713
:100280004EEF5FEF61E0CE010196A8D982E0F4D78E
:100290008981843511F08F5F898361E0CE010196F9
:1002A00082D91F5F1E3F50F321960FB6F894DEBF30
:1002B0000FBECDBFDF91CF911F9108950F931F9374
:1002C000CF93DF9360E080E211D8DFD8182F80E071
:1002D000D3D780E0E4D760E0862FECD760E0862FAC
:1002E000FCD700E0C12FDD27C0FF03C0602F88ECE2
:1002F000F4D7C1FF04C061E0802FDCD701E0C2FF6A
:1003000003C0602F81E0D6D7C3FF02C081E0C7D70A
:10031000C4FD929AC5FDC09ADF91CF911F910F91B4
:1003200008950F931F93CF93DF93CDB7DEB7249734
:100330000FB6F894DEBF0FBECDBF00E010E0CE01D7
:100340000196EAD589819A818159914008F001E0AE
:100350008B819C818159914008F011E0612F802FA1
:10036000A9D724960FB6F894DEBF0FBECDBFDF919C
:10037000CF911F910F910895CF93DF93CDB7DEB743
:1003800024970FB6F894DEBF0FBECDBFCE01019605
:10039000FBD580E071D789819A818050924010F41A
:1003A00081E06AD78B819C818050924010F482E07A
:1003B00063D724960FB6F894DEBF0FBECDBFDF9192
:1003C000CF910895CF93DF9360E280E08FD7C0E0B4
:1003D000D0E08EEF9FE1019797FFFDCF6C2F80E07B
:1003E0007CD72196CF3FD105A0F3CFEFD0E08EEFA1
:1003F0009FE1019797FFFDCF6C2F80E06ED721978B
:10040000B1F760E180E072D78EEF9FE1019797FF2F
:10041000FDCF6C2F80E061D72196CF3FD105A0F3AF
:10042000CFEFD0E08EEF9FE1019797FFFDCF6C2FCC
:1004300080E053D72197B1F7DF91CF910895CF9303
:10044000DF9360E080E252D7C0E0D0E08EEF9FE122
:10045000019797FFFDCF60E08C2F3FD72196CF3FCC
:10046000D105A0F3CFEFD0E08EEF9FE1019797FF8A
:10047000FDCF60E08C2F31D72197B1F760E080E1AC
:1004800035D78EEF9FE1019797FFFDCF60E08C2F6E
:1004900024D72196CF3FD105A0F3CFEFD0E08EEF48
:1004A0009FE1019797FFFDCF60E08C2F16D7219732
:1004B000B1F7DF91CF910895CF93DF9360E2862F5C
:1004C00015D7C0E0D0E08EEF9FE1019797FFFDCFF9
:1004D0006C2F8C2F02D72196CF3FD105A0F3CFEF01
:1004E000D0E08EEF9FE1019797FFFDCF6C2F8C2F0F
:1004F000F4D62197B1F760E1862FF8D68EEF9FE111
:10050000019797FFFDCF6C2F8C2FE7D62196CF3F19
:10051000D105A0F3CFEFD0E08EEF9FE1019797FFD9
:10052000FDCF6C2F8C2FD9D62197B1F760E0862FA5
:10053000D4D6DF91CF91089582DF44DFBDDF0895E7
:10054000CF93DF9381E098D660E0862FB3D680E02A
:10055000A6D6C9E4D3E08FEF09D82197D7FFFBCF08
:1005600082E08AD6C9E4D3E08FEF00D82197D7FF85
:10057000FBCF80E081D681E092D6C9E4D3E08FEF53
:10058000F5D72197D7FFFBCF60E081E093D680E0DD
:1005900086D6C9E4D3E08FEFE9D72197D7FFFBCF09
:1005A00061E080E087D6C9E4D3E08FEFDFD7219701
:1005B000D7FFFBCF61E0862F7DD683E05DD681E05B
:1005C0006ED6C9E4D3E08FEFD1D72197D7FFFBCF09
:1005D00060E0862F6FD680E04FD680E060D6DF9156
:1005E000CF910895CF93DF9347DD67E180E690E0F8
:1005F000DAD76AE088E790E0D6D7A2DF6BE083E83D
:1006000090E0D1D781E038D6C0E0D0E08ADE2196F4
:100610008EEFC030D807D0F380E02ED66DE08FE8A3
:1006200090E0C1D7C0E0D0E049DE21968EEFC03027
:10063000D807D0F321DD80E01FD660E18DE990E09E
:10064000B2D781E02CD6C0E0D0E096DE21968FEFC5
:10065000C03FD807D0F380E00FD680E020D66CE012
:100660008EEA90E0A0D761E0862F24D665DF60E0B7
:10067000862F20D66DE08BEB90E095D7F3DDDF91F0
:10068000CF910895F9DC89EC90E043D6FED6813015
:1006900011F433D0FBCF823011F40CD4F7CF843077
:1006A00011F41BD3F3CF883089F745D1EFCF809178
:1006B00017019091180101969093180180931701EA
:1006C0008F3F910534F08FEF90E090931801809365
:1006D000170108958091150190911601019690934C
:1006E0001601809315018F3F910534F08FEF90E054
:1006F00090931601809315010895CF93BDDC84ED8E
:1007000090E007D681E0CBD5C0E08BE191E004D446
:10071000CF5FCF3FD1F78BE191E0FED380911B01FA
:1007200090911C0120911D0130911E01821B930BA1
:1007300090931A01809319018FE890E0909316012D
:100740008093150190931801809317018BE191E03C
:10075000E3D320911B0130911C0180911D019091E8
:100760001E01281B390B8091190190911A01281B39
:10077000390B2530310524F081E07ED598DF13C098
:100780002C5F3F4F24F482E077D5A4DF0CC080E0DB
:1007900073D58FE890E090931601809315019093A4
:1007A000180180931701609115018091170195D56B
:1007B0006CD6882359F2CF9108952091150130917C
:1007C00016012B5F3F4F3093160120931501809146
:1007D00017019091180105969093180180931701C5
:1007E000CF96CF9730F481E090E0909318018093FA
:1007F0001701215C3F4F2F33310530F481E090E049
:10080000909316018093150181E049D560E0862F11
:1008100051D50895809115019091160105979093F7
:100820001601809315012091170130911801255070
:10083000304030931801209317012B5F3F4F0197F1
:10084000CF9730F48FEF9FEF9093160180931501AF
:10085000265030402F33310530F48FEF9FEF9093C7
:1008600018018093170180E01AD561E0862F22D508
:1008700008958091170190911801059790931801A0
:10088000809317010197CF9730F48FEF9FEF9093EC
:10089000180180931701809115019091160105961A
:1008A0009093160180931501CF96CF9730F481E095
:1008B00090E0909316018093150180E0F0D460E001
:1008C00081E0F8D408958091170190911801059660
:1008D0009093180180931701CF96CF9730F481E061
:1008E00090E09093180180931701809115019091E9
:1008F0001601059790931601809315010197CF97E4
:1009000030F48FEF9FEF909316018093150180E0F4
:10091000C6D461E080E0CED4089510921801109200
:100920001701109216011092150180E0B8D460E012
:10093000862FC0D40895CF93DF93CDB7DEB7279726
:100940000FB6F894DEBF0FBECDBF96DB96D58FED08
:1009500090E0DFD489D590930C0180930B01009730
:1009600009F463C08F73907190930C0180930B0115
:1009700040E150E0BE016F5F7F4F63D6CE0101962C
:10098000C8D48AEE90E0C5D480910B0190910C01FF
:1009900020E18031920709F445C050E1813195078B
:1009A000D0F420E18630920709F43CC050E1873052
:1009B000950740F420E18230920781F18450904104
:1009C00079F133C020E18830920731F18C509041A9
:1009D00009F4BAC02AC020E181329207E9F050E15F
:1009E0008232950740F420E181319207C9F08052AC
:1009F0009041A1F01AC020E189329207A9F050E19C
:100A00008A32950720F48552904171F00EC08D53C3
:100A1000904109F499C009C0FDDE07C0CEDE05C0D3
:100A200028DF03C050DF01C078DF2091170130912B
:100A30001801C9010197CE9730F4215C3F4F3093E4
:100A4000180120931701809117019091180197FFC9
:100A500009C02FEF823C92072CF0CF97909318019A
:100A6000809317012091150130911601C90101975A
:100A7000CE9730F4215C3F4F30931601209315013F
:100A8000809115019091160197FF09C05FEF823C9C
:100A900095072CF0CF97909316018093150140E2B3
:100AA000642F809117019091180197FD40E12091EA
:100AB00015013091160137FD60E18F3F910539F046
:100AC00034F08FEF90E0909318018093170180919C
:100AD00017019091180181509F4F34F481E09FEFEE
:100AE00090931801809317012F3F310539F034F0AE
:100AF0008FEF90E09093160180931501809115017E
:100B00009091160181509F4F34F481E09FEF9093B4
:100B1000160180931501842FE9D36091150170911E
:100B2000160177FF03C0709561957F4F8091170183
:100B30009091180197FF03C0909581959F4FCDD359
:100B400084E690E01BD506CF80E090E027960FB6B4
:100B5000F894DEBF0FBECDBFDF91CF9108952091F5
:100B60001501309116012B5F3F4F309316012093F2
:100B70001501809117019091180105969093180125
:100B800080931701CF96CF9730F481E090E0909357
:100B9000180180931701215C3F4F2F33310530F44A
:100BA00081E090E0909316018093150181E077D366
:100BB00060E0862F7FD308958091150190911601F2
:100BC000059790931601809315012091170130919C
:100BD00018012550304030931801209317012B5FE6
:100BE0003F4F0197CF9730F48FEF9FEF909316010F
:100BF00080931501265030402F33310530F48FEFAC
:100C00009FEF909318018093170180E048D361E033
:100C1000862F50D308958091170190911801059760
:100C200090931801809317010197CF9730F48FEFBD
:100C30009FEF909318018093170180911501909177
:100C4000160105969093160180931501CF96CF97C4
:100C500030F481E090E0909316018093150180E0DC
:100C60001ED360E081E026D3089580911701909112
:100C7000180105969093180180931701CF96CF978E
:100C800030F481E090E090931801809317018091F7
:100C90001501909116010597909316018093150107
:100CA0000197CF9730F48FEF9FEF909316018093C9
:100CB000150180E0F4D261E080E0FCD2089510924A
:100CC000180110921701109216011092150180E080
:100CD000E6D260E0862FEED20895CF93DF93CDB7B2
:100CE000DEB721970FB6F894DEBF0FBECDBFC4D9D3
:100CF0008DEE90E00ED311D4789419824EEF5FEF11
:100D000061E0CE0101966AD48981992784339105E7
:100D1000B9F0853391053CF48B31910509F4C1C0DC
:100D2000C29751F012C08633910561F08633910568
:100D30005CF0C89719F009C03FDF07C010DF05C09D
:100D40006ADF03C092DF01C0BADF20911701309142
:100D50001801C9010197CE9730F4215C3F4F3093C1
:100D6000180120931701809117019091180197FFA6
:100D700009C02FEF823C92072CF0CF979093180177
:100D8000809317012091150130911601C901019737
:100D9000CE9730F4215C3F4F30931601209315011C
:100DA000809115019091160197FF09C05FEF823C79
:100DB00095072CF0CF9790931601809315018091A1
:100DC0001F0190912001892BD1F0109218011092EF
:100DD0001701109216011092150110922001109225
:100DE0001F0160E1862F82D268EC862F76D281E0E7
:100DF00056D261E0862F5ED288EE93E0BFD340E208
:100E0000642F809117019091180197FD40E1209186
:100E100015013091160137FD60E18F3F910539F0E2
:100E200034F08FEF90E09093180180931701809138
:100E300017019091180181509F4F34F481E09FEF8A
:100E400090931801809317012F3F310539F034F04A
:100E50008FEF90E09093160180931501809115011A
:100E60009091160181509F4F34F481E09FEF909351
:100E7000160180931501842F39D26091150170916C
:100E8000160177FF03C0709561957F4F8091170120
:100E90009091180197FF03C0909581959F4F1DD2A7
:100EA0002CCF21960FB6F894DEBF0FBECDBFDF91D9
:100EB000CF910895CF93DF93DFD8BDD186EF90E037
:100EC00028D2C3E0D0E068EC70E0CB018DD068ECB4
:100ED00070E08AE590E019D12197D7FFF4CFDF9138
:100EE000CF91089540912101509122011092220149
:100EF0001092210185EC87B9369A349BFECF349A43
:100F000024B185B19927982F8827509322014093C7
:100F10002101820F911D08950F931F93CF93DF93AB
:100F2000EC010091210110912201109222011092F6
:100F3000210183E487B98AE019D3369A349BFECF26
:100F4000349A24B185B19927982F8827820F911D53
:100F50009983888382E487B98AE008D3369A349BE0
:100F6000FECF349A24B185B19927982F8827820F14
:100F7000911D9B838A831093220100932101DF91AD
:100F8000CF911F910F910895FC0140912101509143
:100F90002201109222011092210184B38C7F84BB24
:100FA000979A81E487B9369A349BFECF349A24B15C
:100FB00085B19927982F8827820F911D918380836F
:100FC00080E487B9369A349BFECF349A24B185B138
:100FD0009927982F8827820F911D9383828350939E
:100FE00022014093210108956F927F928F929F92E8
:100FF000AF92BF92CF92DF92EF92FF920F931F9327
:10100000CF93DF938C014B0166247724EB015B01C6
:1010100017FF04C088279927801B910BAA2797FDEB
:10102000A095BA2FBC01CD0120E137E240E050E0AD
:1010300069D323EA3BE440E050E083D369017A01BD
:10104000B301C301EFD06C2F8C2F47D117FF02C023
:1010500060E101C060E2862F49D1C114D104E104EE
:10106000F104F1F12091230130912401620E731EED
:101070008091250190912601281B390B1216130629
:101080006CF48C169D0624F085EFA816B10414F0BC
:101090002A9704C08AE090E0A80EB91E37FF0CC062
:1010A0008A149B041CF0C53FD1052CF086EF9FEFFE
:1010B000A80EB91E01C02A9660E070E0CB01B2D044
:1010C0006A2D8C2F0AD181E090E058D2C301AA2763
:1010D00097FDA095BA2F8C159D05AE05BF0510F2A2
:1010E00060E0862F03D188EC90E048D2DF91CF9169
:1010F0001F910F91FF90EF90DF90CF90BF90AF9036
:101100009F908F907F906F9008956F927F928F92B3
:101110009F92AF92BF92CF92DF92EF92FF920F9386
:101120001F93CF93DF937C014B01F7FE04C0882708
:1011300099278E199F09AA2797FDA095BA2FBC0160
:10114000CD0121EB30E040E050E0DCD228E631E098
:1011500040E050E018D359016A0166247724E40185
:101160008401B301C3015ED0682D882DB6D0F7FE8F
:1011700003C060E280E102C060E180E2B7D01A14EF
:101180001B041C041D04CCF5209123013091240183
:10119000620E731E8091250190912601281B390B48
:1011A0001216130654F48C169D061CF0053F11050B
:1011B00014F02A9702C0065F1F4F37FF0AC080163F
:1011C00091061CF0C53FD1051CF00A50104001C02B
:1011D0002A9660E070E0CB0125D0602F8C2F7DD067
:1011E00081E090E0CBD1C301AA2797FDA095BA2F4B
:1011F0008A159B05AC05BD053CF260E0862F76D0D4
:1012000088EC90E0BBD1DF91CF911F910F91FF90BF
:10121000EF90DF90CF90BF90AF909F908F907F9096
:101220006F90089590932401809323017093260179
:10123000609325010895F89484B38C7F84BB979ABA
:101240008FEE86B981E687B981E090E09093220124
:1012500080932101789460E070E0CB01E3DF089592
:101260001092220110922101089581E090E0909364
:101270002201809321010895882311F4C09803C0AE
:10128000813019F4C09A92980895833019F4C09A65
:10129000929A0895823011F4C098929A089522B3D8
:1012A0002F7B992736E0880F991F3A95E1F7282B75
:1012B00022BB0895982F882311F4662349F097984C
:1012C00084B3836084BB85B3836085BB992309F4B1
:1012D000A998662309F4A8980895282F33273BBDC1
:1012E0002ABD862F992799BD88BD089522B32F7CEA
:1012F000282B22BB88B38F7C862B88BB0895982F20
:1013000088E08AB95E9A5D9BFECF9CB95E9BFECF5A
:1013100008951F93CF93DF93EC0110E08881882319
:1013200061F0FE01E10FF11D1F5F8081E8DFFE012A
:10133000E10FF11D80818823A1F7DF91CF911F91EB
:101340000895CF93DF93CDB7DEB72C970FB6F894FF
:10135000DEBF0FBECDBFDC01CB012AE030E0AE0125
:101360004F5F5F4FBC01CD018BD1CE010196D1DF24
:101370002C960FB6F894DEBF0FBECDBFDF91CF9194
:101380000895CF93DF93CDB7DEB727970FB6F894C4
:10139000DEBF0FBECDBF4AE050E0BE016F5F7F4FA2
:1013A00050D1CE010196B5DF27960FB6F894DEBF77
:1013B0000FBECDBFDF91CF91089551E0809950E0ED
:1013C000809114018F3F19F08F5F809314018091F9
:1013D0001301909114018517A1F1943008F43FC0D6
:1013E00040911201442391F4513059F49B3F48F04D
:1013F00081E090E0909311018093100150931201CD
:101400001DC0109211011092100118C0963048F1C1
:101410009B3090F48091100190911101880F991FD9
:10142000252F3327822B932B90931101809310014A
:101430004F5F4093120102C01092120110921401EA
:1014400010C09B3070F0809112018E3041F4809179
:1014500010019091110190930F0180930E01109251
:10146000120150931301089580910E0190910F0184
:1014700010920F0110920E01089581B381BB82B3C7
:1014800082BB81E080930D0108950F931F93CF934A
:10149000DF93C0912101D09122011092220110927C
:1014A00021018B9A939A84E487B98AE05FD0369AB7
:1014B000349BFECF349A24B185B19927182F002789
:1014C000020F111D939885E051D0D0932201C09353
:1014D000210198014427552760E070E48CE990E0F1
:1014E00052D1CA01B9012DE330E040E050E00AD109
:1014F000DC01CB0188549B43A940B040BC01CD0125
:1015000020E137E240E050E03ED1DA01C9019927FD
:10151000DF91CF911F910F91089593988B9885B784
:10152000837F85BF8BB780688BBF08958BB78F771C
:101530008BBF08958091280190912901A0912A01E3
:10154000B0912B01BA2FA92F982F8827209127011E
:10155000820F911DA11DB11DBC01CD0124E230E01F
:1015600040E050E0EED0CA01B90108959091270102
:10157000980F809127018917E1F708950F931F9322
:10158000CF93DF938C01C0E0D0E0C817D90734F4C3
:1015900084E2ECDF2196C017D107D4F3DF91CF911D
:1015A0001F910F910895AC0120E088E08AB966236D
:1015B00051F05D9BFCCFFA01E20FF11D2F5F80819E
:1015C0008CB96150F4CF5E9BFECF20E060E06E5F8F
:1015D0006E3FE8F32F5F2E3FC8F30895DC0170E003
:1015E00020E030E080E18AB941155105F1F076172D
:1015F000B0F4C90121E030E08417950780F45F9BC7
:1016000008C0FD01E70FF11D8CB180837F5F20E0F2
:1016100030E0761720F4C9012F5F3F4FEDCF42171E
:10162000530770F484E58C930895761748F45F9B14
:10163000FCCFFD01E70FF11D8CB180837F5FF5CFFB
:101640000895FB019F01E8944230BCF04532ACF4B0
:101650004A3029F497FB1EF4909581959F4F642F93
:101660007727ACD0805D8A330CF0895D8193CB0104
:101670000097A9F716F45DE251931082C90132C0B8
:10168000FA01CF93FF93EF9322303CF125322CF5F2
:10169000C22FE894CA3049F497FB3EF490958095A8
:1016A000709561957F4F8F4F9F4F2C2F3327442785
:1016B0005527FF93EF9345D0EF91FF91605D6A331B
:1016C0000CF0695D6193B901CA01605070408040BF
:1016D000904059F716F4CDE2C19310828F919F91FB
:1016E000CF9100C0DC01FC0101900020E9F73297A6
:1016F000AE17BF0730F47C916081708331976D9392
:10170000F7CF0895629FD001739FF001829FE00D93
:10171000F11D649FE00DF11D929FF00D839FF00D70
:10172000749FF00D659FF00D9927729FB00DE11D1C
:10173000F91F639FB00DE11DF91FBD01CF011124F9
:101740000895A1E21A2EAA1BBB1BFD010DC0AA1F02
:10175000BB1FEE1FFF1FA217B307E407F50720F01A
:10176000A21BB30BE40BF50B661F771F881F991F95
:101770001A9469F760957095809590959B01AC01DE
:10178000BD01CF01089597FB092E05260ED057FD08
:1017900004D0D7DF0AD0001C38F45095409530951E
:1017A00021953F4F4F4F5F4F0895F6F790958095E5
:1017B000709561957F4F8F4F9F4F0895AA1BBB1B5C
:1017C00051E107C0AA1FBB1FA617B70710F0A61B41
:1017D000B70B881F991F5A95A9F780959095BC0162
:0417E000CD0108959A
:1017E4000A0D2D2D20415355524F205465737469B1
:1017F4006E67202D2D0A0D004C45442054657374EA
:101804000A0D004C696E6520546573740A0D00530B
:10181400776974636820546573740A0D004F646FAC
:101824006D657472696520546573740A0D004D6F9B
:10183400746F7220546573740A0D00536572696184
:101844006C20546573740A0D0044656D6F4D6F64AC
:10185400650D0A004C696E6544656D6F0D0A005292
:10186400433520546573740D0A000D0A0050434437
:10187400656D6F0D0A00526563687465636B44653A
:061884006D6F0D0A00006B
:00000001FF
