:1000000012C02CC098C12AC00AC228C027C026C06E
:1000100025C024C023C022C021C020C0A3C11EC04F
:100020001DC01CC01BC011241FBECFE5D4E0DEBF25
:10003000CDBF12E0A0E6B0E0EEEDF8E102C0059021
:100040000D92A03FB107D9F713E0A0EFB2E001C0D5
:100050001D92A631B107E1F7B4D33FCCD1CF80E6F2
:1000600090E0C8D98FE690E0C5D983E890E0C2D986
:1000700081E990E0BFD9089584EA90E0BBD98EEB86
:1000800090E0B8D98CEC90E0B5D98CED90E0B2D985
:1000900008950F931F93CF93DF9328EE33E0AC01C5
:1000A000429FC001439F900D529F900D112463E029
:1000B00070E04EDBEB0100E010E004C088EDCBDA2D
:1000C0000F5F1F4FC017D107CCF7DF91CF911F9162
:1000D0000F9108956F927F928F929F92AF92BF92ED
:1000E000CF92DF92EF92FF920F931F93DF93CF9304
:1000F000CDB7DEB72F970FB6F894DEBF0FBECDBFDA
:100100004C01DE011296E5EAF2E08EE001900D92DC
:100110008150E1F7F4018081813381F484EF90E034
:1001200069D980E260E252D988E768E748D983E07C
:1001300090E0AFDF80E060E042D9B9C0823379F56A
:1001400083E191E057D998DFCE01019661E040E06C
:1001500050E0AEDA8981813329F486E291E04AD910
:1001600082E006C0823359F48EE391E043D981E006
:10017000EFD883E090E08DDF80E0EAD898C0833349
:1001800009F095C088E591E035D981E061E0FCD8BF
:1001900083E090E07EDF80E060E0F6D888C08333C3
:1001A000E9F58CE691E026D988ED55DA84E0682EF1
:1001B000712C6C0E7D1E2DC088ED4DDAE7D9C82E4E
:1001C000DD24F0E4CF16D1041CF086E991E012D9C9
:1001D000730101E010E0F701A080B180CA14DB04D4
:1001E00054F08EEA91E006D9C80104D981EC91E07F
:1001F00001D9CA18DB080F5F1F4F82E090E0E80EBC
:10020000F91E0730110539F7C40161E040E050E004
:100210004FDAF4018081893379F649C0843309F0DB
:1002200046C080ED91E0E6D888EE91E0E3D871D148
:1002300083EF91E0DFD881E08BD800E010E04ED270
:100240000F5F1F4FFEEF00301F07C9F780E080D817
:100250008FEF91E0CFD800E010E060D20F5F1F4F2A
:100260008EEF00301807C9F727D180E071D88DE0F4
:1002700092E0C0D881E07FD800E010E00FD20F5F9D
:100280001F4F9FEF003F1907C9F780E061D880E05A
:1002900072D88EE192E0AED881E061E075D8FAD1F3
:1002A00080E060E071D88BE292E0A4D862D22F9611
:1002B0000FB6F894DEBF0FBECDBFCF91DF911F9177
:1002C0000F91FF90EF90DF90CF90BF90AF909F90F5
:1002D0008F907F906F900895FF920F931F93DF93FD
:1002E000CF930F92CDB7DEB7E7D081E031D889E365
:1002F00092E080D8CE01019680339105A9F029E6DD
:10030000F22E8C01F98288E592E074D8A8DEC8014B
:1003100061E040E050E0CCD986E992E06BD8C801BA
:1003200069D8C801D7DEEECF0F90CF91DF911F9132
:100330000F91FF9008951F920F920FB60F92112404
:100340008F939F9381E090E090930A038093090339
:100350008BB78F778BBF9F918F910F900FBE0F90B0
:100360001F9018951F920F920FB60F9211242F9382
:100370003F934F938F939F93AF93BF93EF93FF93CD
:1003800080910B0390910C03892BD9F14091F002DD
:10039000242F30E095B1F901ED50FD4F90834423B7
:1003A00011F080E601C081E687B99C3890F4D9014C
:1003B000AF50BD4F8C91813001F5F901EE0FFF1F59
:1003C000E35FFC4F808191810196918380831C9231
:1003D00014C0913A90F0D901AF50BD4F8C91882351
:1003E00061F4F901EE0FFF1FE35FFC4F8081918103
:1003F00001969183808381E08C9381E0482740932C
:10040000F002FF91EF91BF91AF919F918F914F912A
:100410003F912F910F900FBE0F901F9018951F9234
:100420000F920FB60F9211242F933F934F935F9328
:100430006F937F938F939F93AF93BF93EF93FF93AC
:1004400084B58B5D84BD809111038F5F8093110310
:1004500080911103882399F48091120390911303E2
:10046000A0911403B09115030196A11DB11D8093B5
:10047000120390931303A0931403B0931503809178
:10048000F902882341F08091110390E08770907009
:10049000892B09F404D8FF91EF91BF91AF919F91FF
:1004A0008F917F916F915F914F913F912F910F901D
:1004B0000FBE0F901F90189589E785BD81E983BD18
:1004C00089B7806489BF1BB81AB896E890BD8FECD5
:1004D00089B98FE387BB84EF81BB81EA8FBD82E05E
:1004E0008EBD96B9979880E046D781E061E04CD701
:1004F00080E060E049D781E02BD780E260E266D7F8
:1005000080E060E05CD710920C0310920B037894AB
:100510000895CF93DF9381E01BD780E060E034D76C
:1005200080E029D7C0E0D0E08FEF95D8219683E016
:10053000CA34D807C9F782E00BD7C0E0D0E08FEF0C
:100540008AD8219683E0CA34D807C9F780E000D75B
:1005500081E011D7C0E0D0E08FEF7DD8219683E015
:10056000CA34D807C9F781E060E00ED780E003D72E
:10057000C0E0D0E08FEF6FD8219683E0CA34D8076F
:10058000C9F780E061E000D7C0E0D0E08FEF63D82A
:10059000219683E0CA34D807C9F781E061E0F4D638
:1005A00083E0D6D681E0E7D6C0E0D0E08FEF53D825
:1005B000219683E0CA34D807C9F780E060E0E4D62A
:1005C00080E0C6D680E0D7D6DF91CF9108951F9303
:1005D00080E260E2FBD610E0812F612FF0D61F5F32
:1005E0001F3FD1F7812F612FEAD61150D9F780E153
:1005F00060E1ECD6812F612FE2D61F5F1F3FD1F75C
:10060000812F612FDCD61150D9F780E060E0D7D67A
:100610001F9108951F9380E260E0D8D610E0812FEB
:1006200060E0CDD61F5F1F3FD1F7812F60E0C7D6B6
:100630001150D9F780E160E0C9D6812F60E0BFD6C4
:100640001F5F1F3FD1F7812F60E0B9D61150D9F756
:100650001F9108951F9380E060E2B8D610E080E01B
:10066000612FADD61F5F1F3FD1F780E0612FA7D666
:100670001150D9F780E060E1A9D680E0612F9FD6C4
:100680001F5F1F3FD1F780E0612F99D61150D9F736
:100690001F910895BFDFDEDF9ADF0895DF93CF93C8
:1006A00000D000D0CDB7DEB7CE0101960CD580E0EA
:1006B0004FD689819A818050924010F481E048D6CB
:1006C0008B819C818050924010F482E041D60F9043
:1006D0000F900F900F90CF91DF910895DF93CF93FC
:1006E00000D000D0CDB7DEB7CE0101961CD520E0FA
:1006F00089819A818159914008F021E060E08B81E5
:100700009C818159914008F061E0822F3DD60F9085
:100710000F900F900F90CF91DF9108951F9380E27B
:1007200060E054D633D7182F80E012D680E023D66D
:1007300080E060E029D680E060E041D610FF03C091
:1007400088EC60E03CD611FD02C060E004C080E0AF
:1007500061E01AD661E012FF02C081E015D613FFF6
:1007600002C081E008D614FD929A15FDC09A1F912F
:100770000895EF92FF921F93DF93CF930F92CDB71F
:10078000DEB710E07E010894E11CF11C81E0E0D5A9
:10079000C70161E04EEF5FEF8BD782E0D9D5898149
:1007A000843511F08F5F8983C70161E06DD71F5FCA
:1007B0001E3F61F70F90CF91DF911F91FF90EF9057
:1007C00008957ADEE3D6882321F0E0D68823E9F77E
:1007D00002D082DDF7CF70DE83EB92E00BD6D6D667
:1007E000813011F433D0FBCF823011F434D4F7CF01
:1007F000843011F445D3F3CF883089F76AD1EFCF35
:1008000080910103909102030196909302038093DB
:1008100001038F3F910534F08FEF90E09093020336
:100820008093010308958091FF0290910003019647
:10083000909300038093FF028F3F910534F08FEF78
:1008400090E0909300038093FF0208950F931F930D
:10085000CF93DF9331DE8EEB92E0CCD581E08BD568
:1008600010E085E093E05FD41F5F1F3FD1F785E084
:1008700093E059D4809105039091060320910703DA
:1008800030910803821B930B90930403809303031E
:100890008FE890E0909300038093FF02909302030F
:1008A000809301030FE810E0CFEFD0E085E093E004
:1008B0003AD420910503309106038091070390916B
:1008C0000803281B390B8091030390910403281B14
:1008D000390B253031059CF081E03AD58091010338
:1008E00090910203019690930203809301038F3F3E
:1008F00091052CF1D0930203C093010320C02C5F1B
:100900003F4F9CF482E024D58091FF029091000338
:100910000196909300038093FF028F3F91057CF036
:10092000D0930003C093FF020AC080E011D510935A
:1009300000030093FF0210930203009301038091D0
:1009400001036091FF023BD521D6882309F4AECF85
:10095000DF91CF911F910F91089510920203109291
:100960000103109200031092FF0280E004D580E0A2
:1009700060E00AD5089580910103909102030596E5
:100980009093020380930103CF96CF9730F481E0D8
:1009900090E090930203809301038091FF02909175
:1009A00000030597909300038093FF020197CF9770
:1009B00030F48FEF9FEF909300038093FF0280E06D
:1009C000DAD480E061E0E0D4089580910103909151
:1009D0000203059790930203809301030197CF9739
:1009E00030F48FEF9FEF9093020380930103809187
:1009F000FF02909100030596909300038093FF02FD
:100A0000CF96CF9730F481E090E0909300038093ED
:100A1000FF0280E0B0D481E060E0B6D40895809118
:100A2000FF02909100030597909300038093FF02CB
:100A3000209101033091020325503040309302038E
:100A4000209301030197CF9730F48FEF9FEF90939E
:100A500000038093FF02215030402F33310530F4E2
:100A60008FEF9FEF909302038093010380E083D484
:100A700081E061E089D408952091FF023091000364
:100A80002B5F3F4F309300032093FF0280910103BF
:100A90009091020305969093020380930103CF96F1
:100AA000CF9730F481E090E09093020380930103AC
:100AB000215C3F4F2F33310530F481E090E090937B
:100AC00000038093FF0281E056D480E060E05CD4B4
:100AD0000895CF92DF92EF92FF920F931F93DF93CF
:100AE000CF93CDB7DEB727970FB6F894DEBF0FBE12
:100AF000CDBFE2DC36D589EC92E07CD46E0108945F
:100B0000C11CD11C8FEFE82EF12C01E01FEF20D586
:100B10009093F6028093F502009709F46CC08F73EE
:100B200090719093F6028093F502B60140E150E097
:100B300073D6C6015FD484ED92E05CD48091F50257
:100B40009091F60220E18031920709F43FC050E114
:100B500081319507C8F420E186309207B9F150E160
:100B60008730950748F420E18230920759F184508C
:100B7000904109F040C028C020E18830920701F17F
:100B80008C509041C1F526C020E181329207C1F01E
:100B900050E18232950740F420E181319207A1F0C3
:100BA0008052904141F50EC020E18932920781F0D8
:100BB00050E18D33950771F085529041E1F408C002
:100BC0002EDF19C059DF17C000DF15C0D4DE13C0F7
:100BD000C4DE11C080E090E027960FB6F894DEBF27
:100BE0000FBECDBFCF91DF911F910F91FF90EF907E
:100BF000DF90CF9008952091010330910203C90145
:100C00000197CE9730F4215C3F4F3093020320933D
:100C100001032091010330910203C901CE96CE97C2
:100C200030F42F533040309302032093010320917E
:100C3000FF0230910003C9010197CE9730F4215C87
:100C40003F4F309300032093FF022091FF02309129
:100C50000003C901CE96CE9730F42F533040309325
:100C600000032093FF02809101039091020397FFFC
:100C700002C040E101C040E22091FF023091000338
:100C800037FF02C060E101C060E28F3F910529F0AB
:100C900024F0F0920203E09201038091010390910D
:100CA000020381509F4F24F4109302030093010329
:100CB0002F3F310529F024F0F0920003E092FF026B
:100CC0008091FF029091000381509F4F24F4109374
:100CD00000030093FF02842F79D380910103909148
:100CE000020397FF03C0909581959F4F6091FF028B
:100CF0007091000377FF03C0709561957F4F5FD3BC
:100D000084E690E0B0D403CF109202031092010366
:100D1000109200031092FF0280E02DD380E060E08B
:100D200033D3089580910103909102030596909327
:100D3000020380930103CF96CF9730F481E090E0D7
:100D400090930203809301038091FF02909100032E
:100D50000597909300038093FF020197CF9730F49B
:100D60008FEF9FEF909300038093FF0280E003D307
:100D700080E061E009D3089580910103909102031E
:100D8000059790930203809301030197CF9730F466
:100D90008FEF9FEF90930203809301038091FF02F6
:100DA000909100030596909300038093FF02CF96E5
:100DB000CF9730F481E090E0909300038093FF029E
:100DC00080E0D9D281E060E0DFD208958091FF0217
:100DD000909100030597909300038093FF02209168
:100DE00001033091020325503040309302032093D9
:100DF00001030197CF9730F48FEF9FEF909300039B
:100E00008093FF02215030402F33310530F48FEFB3
:100E10009FEF909302038093010380E0ACD281E0C6
:100E200061E0B2D208952091FF02309100032B5F60
:100E30003F4F309300032093FF0280910103909174
:100E4000020305969093020380930103CF96CF97F8
:100E500030F481E090E09093020380930103215CE1
:100E60003F4F2F33310530F481E090E09093000341
:100E70008093FF0281E07FD280E060E085D2089518
:100E8000CF92DF92EF92FF920F931F93DF93CF9356
:100E90000F92CDB7DEB710DB87ED92E0ABD269D30E
:100EA00078946E010894C11CD11C8FEFE82EF12CB0
:100EB00001E01FEF1982C60161E04EEF5FEFF8D34A
:100EC0008981843399F0853330F48B3109F4B9C0CA
:100ED000823389F407C0863359F0863358F088335B
:100EE00051F402C073DF07C09EDF05C045DF03C0B9
:100EF00019DF01C009DF2091010330910203C9010C
:100F00000197CE9730F4215C3F4F3093020320933A
:100F100001032091010330910203C901CE96CE97BF
:100F200030F42F533040309302032093010320917B
:100F3000FF0230910003C9010197CE9730F4215C84
:100F40003F4F309300032093FF022091FF02309126
:100F50000003C901CE96CE9730F42F533040309322
:100F600000032093FF028091090390910A03892BCB
:100F7000D1F010920203109201031092000310921C
:100F8000FF0210920A031092090380E160E11ED271
:100F900088EC68EC14D281E0EED181E061E0F4D11C
:100FA00088EE93E060D3809101039091020397FF54
:100FB00002C040E101C040E22091FF0230910003F5
:100FC00037FF02C060E101C060E28F3F910529F068
:100FD00024F0F0920203E0920103809101039091CA
:100FE000020381509F4F24F41093020300930103E6
:100FF0002F3F310529F024F0F0920003E092FF0228
:101000008091FF029091000381509F4F24F4109330
:1010100000030093FF02842FD9D1809101039091A6
:10102000020397FF03C0909581959F4F6091FF0247
:101030007091000377FF03C0709561957F4FBFD11A
:1010400039CF0F90CF91DF911F910F91FF90EF90CB
:10105000DF90CF900895CF93DF932EDA60D180EEAA
:1010600092E0C8D1C0E0D0E088EC90E060E070E0B1
:1010700048EC50E090D080E090E06AE570E048EC09
:1010800050E089D02196C430D10571F7DF91CF911E
:10109000089540910B0350910C0310920C03109291
:1010A0000B0385EC87B9369A349BFECF349A24B172
:1010B00085B150930C0340930B039927982F8827F1
:1010C000820F911D0895FC0140910B0350910C0378
:1010D00010920C0310920B0384B38C7F84BB979AFD
:1010E00081E487B9369A349BFECF349A84B125B116
:1010F0003327322F2227280F311D3183208380E4AC
:1011000087B9369A349BFECF349A24B185B199279A
:10111000982F8827820F911D9383828350930C030D
:1011200040930B0308950F931F93CF93DF93EC012C
:1011300000910B0310910C0310920C0310920B03FF
:1011400083E487B98AE087D2369A349BFECF349AFB
:1011500084B125B13327322F2227280F311D39833F
:10116000288382E487B98AE076D2369A349BFECF10
:10117000349A24B185B19927982F8827820F911D21
:101180009B838A8310930C0300930B03DF91CF9111
:101190001F910F9108958F929F92AF92BF92CF921D
:1011A000DF92EF92FF920F931F93CF93DF93EC01A7
:1011B0008B017A0160E080E002D12097E9F0BE0166
:1011C000D7FF04C0662777276C1B7D0B882777FD28
:1011D0008095982F20E137E240E050E09AD223EA50
:1011E0003BE440E050E0C7D249015A01D7FF02C0BA
:1011F00060E11CC060E21DC0B80117FF04C0662793
:101200007727601B710B882777FD8095982F21EB3E
:1012100030E040E050E07DD228E631E040E050E0B0
:10122000AAD249015A0117FF03C060E280E102C05F
:1012300060E180E2CBD060E070E080E090E066D0DA
:101240006E2D8E2DBCD0E7018E01CC24DD2435C05F
:1012500040910D0350910E0320910D0330910E0328
:1012600080910F0390911003281B390B121613065F
:101270005CF4EC16FD061CF0053F110514F02A97EE
:101280000FC0065F1F4F0CC037FF0AC0E016F10603
:101290001CF0C53FD1051CF00A50104001C02A9631
:1012A000C40ED51E60E070E080E090E02FD0602F8B
:1012B0008C2F85D081E090E0D6D1C601AA2797FD7A
:1012C000A095BA2F88159905AA05BB0508F260E01C
:1012D00080E07CD088EC90E0C6D1DF91CF911F9167
:1012E0000F91FF90EF90DF90CF90BF90AF909F90C5
:1012F0008F90089510920C0310920B03089581E0D3
:1013000090E090930C0380930B03089590930E0349
:1013100080930D037093100360930F030895F89466
:1013200084B38C7F84BB979A8FEE86B981E687B9A8
:1013300081E090E090930C0380930B0378941092DB
:101340000E0310920D031092100310920F030895D4
:10135000882311F4C09803C0813019F4C09A929880
:101360000895833019F4C09A929A0895823011F446
:10137000C098929A089592B39F7B8295880F880FA8
:10138000807C982B92BB0895882319F4662371F40E
:1013900008C0979884B3836084BB85B3836085BBA2
:1013A00001C0A998662351F4A8980895979884B32A
:1013B000836084BB85B3836085BBF3CF0895992791
:1013C0009BBD8ABD772779BD68BD089592B39F7C88
:1013D000982B92BB88B38F7C862B88BB0895982F5F
:1013E00088E08AB95E9A5D9BFECF9CB95E9BFECF7A
:1013F0001AB808950F931F93CF93DF938C01C0E029
:10140000D0E001C0ECDFF801EC0FF11D80812196E6
:101410008823C1F7DF91CF911F910F9108950F930A
:101420001F93CF93DF93CDB7DEB72C970FB6F89409
:10143000DEBF0FBECDBF2AE030E08E010F5F1F4F31
:10144000A80109D2C801D6DF2C960FB6F894DEBFEA
:101450000FBECDBFDF91CF911F910F9108950F93D4
:101460001F93CF93DF93CDB7DEB727970FB6F894CE
:10147000DEBF0FBECDBF4AE050E08E010F5F1F4FB1
:10148000B801CAD1C801B6DF27960FB6F894DEBFFF
:101490000FBECDBFDF91CF911F910F91089520B363
:1014A000217031E0522F53278091FA028F3F19F0BB
:1014B0008F5F8093FA028091FB029091FA02851768
:1014C000A1F1943008F43FC04091FC02442391F410
:1014D000222359F49B3F48F081E090E09093FE0274
:1014E0008093FD023093FC021DC01092FE02109208
:1014F000FD0218C0963048F19B3090F48091FD02B7
:101500009091FE02880F991F252F3327822B932B52
:101510009093FE028093FD024F5F4093FC0202C055
:101520001092FC021092FA0210C09B3070F0809171
:10153000FC028E3041F48091FD029091FE02909366
:10154000F8028093F7021092FC025093FB02089578
:101550008091F7029091F8021092F8021092F7022F
:10156000089581B381BB82B382BB81E08093F9028D
:10157000089593988B9885B7837F85BF8BB78068D4
:101580008BBF08958BB78F778BBF0895DF92EF9253
:10159000FF920F931F93CF93DF93C0910B03D091D2
:1015A0000C0310920C0310920B038B9A939A84E411
:1015B00087B98AE050D0369A349BFECF349AD4B0A3
:1015C000E5B0939885E047D0D0930C03C0930B030C
:1015D000FF24FE2CEE24ED0CF11C0027112760E007
:1015E00070E48CE990E0A8019701E7D0CA01B90145
:1015F0002DE330E040E050E08CD068547B438940DC
:10160000904020E137E240E050E0D7D0DA01C90154
:101610009927DF91CF911F910F91FF90EF90DF906D
:1016200008956091120370911303809114039091B7
:10163000150320911103982F872F762F6627620FAD
:10164000711D811D911D24E230E040E050E093D0F7
:10165000CA01B901089590911103980F8091110367
:101660008917E1F70895BC0140E050E009C02091DE
:1016700011032C5D809111038217E1F74F5F5F4FDB
:1016800046175707A4F30895AC0188E08AB920E013
:1016900009C05D9B07C0FA01E20FF11D80818CB982
:1016A0002F5F61506623A9F75E9BFECF1AB808959D
:1016B000DC0180E18AB94115510521F490E026C092
:1016C000C90116C070E020E030E00BC05F9B08C08D
:1016D000FD01E70FF11D8CB180837F5F80E090E01A
:1016E0009C01761768F7C90101962417350770F336
:1016F0004817590768F484E58C9308955F9B06C0EA
:10170000FD01E90FF11D8CB180839F5F9617B0F347
:101710000895629FD001739FF001829FE00DF11D3B
:10172000649FE00DF11D929FF00D839FF00D749F5B
:10173000F00D659FF00D9927729FB00DE11DF91F07
:10174000639FB00DE11DF91FBD01CF011124089564
:1017500097FB092E07260AD077FD04D049D006D082
:1017600000201AF4709561957F4F0895F6F79095D3
:1017700081959F4F0895A1E21A2EAA1BBB1BFD0164
:101780000DC0AA1FBB1FEE1FFF1FA217B307E40760
:10179000F50720F0A21BB30BE40BF50B661F771FB8
:1017A000881F991F1A9469F7609570958095909598
:1017B0009B01AC01BD01CF01089597FB092E0526C1
:1017C0000ED057FD04D0D7DF0AD0001C38F4509556
:1017D0004095309521953F4F4F4F5F4F0895F6F755
:1017E00090958095709561957F4F8F4F9F4F08958D
:1017F000AA1BBB1B51E107C0AA1FBB1FA617B70737
:1018000010F0A61BB70B881F991F5A95A9F7809552
:101810009095BC01CD010895FB019F01E8944230F1
:10182000BCF04532ACF44A3029F497FB1EF4909595
:1018300081959F4F642F7727DBDF805D8A330CF023
:10184000895D8193CB010097A9F716F45DE251936E
:101850001082C90132C0FA01CF93FF93EF93223077
:101860003CF125322CF5C22FE894CA3049F497FB9D
:101870003EF490958095709561957F4F8F4F9F4F67
:101880002C2F332744275527FF93EF9374DFEF91D5
:10189000FF91605D6A330CF0695D6193B901CA0123
:1018A000605070408040904059F716F4CDE2C193EB
:1018B00010828F919F91CF9100C0DC01FC01672FB6
:1018C00071917723E1F7329704C07C916D93708317
:0E18D0006291AE17BF07C8F30895F894FFCFDA
:1018DE00312F2052756E206D6F746F720D0A0032AB
:1018EE002F204C4544732066756E6374696F6E735A
:1018FE000D0A00332F20427574746F6E73200D0A1B
:10190E0000342F2052756E2053656C6674657374A7
:10191E00200D0A000A0D2D2D204C4544206D616EC0
:10192E0075616C2074657374202D2D0D0A00312F96
:10193E0020526564204C4544200D0A00322F20476A
:10194E007265656E204C4544200D0A00332F2042EF
:10195E0061636B204C454473207475726E206F6EFC
:10196E00200D0A000A0D52756E206D6F746F723A5B
:10197E00204657442C204657442061742031323083
:10198E000D0A000A0D204C45442066756E6374697D
:10199E006F6E200D0A005265642053746174757366
:1019AE004C4544207475726E206F6E0D0A0047729E
:1019BE0065656E205374617475734C45442074755F
:1019CE00726E206F6E0D0A004261636B204C4544AF
:1019DE0073207475726E206F6E0D0A000A0D5465B9
:1019EE007374696E6720627574746F6E732E2050F7
:1019FE00726573732027392720746F2065736361B6
:101A0E0070652E0D0A000A0D536F6D657468696E50
:101A1E00672069732077726F6E67210D0A000A0DB9
:101A2E00202D2D2D2D2D3E20205377697463682097
:101A3E00007761732070726573736564210D0A00FF
:101A4E000A0D2D2D20415355524F20546573746944
:101A5E006E67202D2D0A0D004C454420546573747D
:101A6E000A0D004C696E6520546573740A0D00539F
:101A7E00776974636820546573740A0D004F646F40
:101A8E006D657472696520546573740A0D004D6F2F
:101A9E00746F7220546573740A0D00536572696118
:101AAE006C20546573740A0D000A0D2D2D204153C0
:101ABE0055524F204D616E75616C2054657374697B
:101ACE006E67202D2D0A0D000A0D2049276D20640A
:101ADE006F6E65206D792073656C66746573742EF8
:101AEE0020506C656173652067697665206D652091
:101AFE00736F6D6520696E737472756374696F6E42
:101B0E007321210D0A000A0D205265636569766501
:101B1E0064203A200000002000100008000400029B
:101B2E0000010044656D6F4D6F64650D0A004C69D0
:101B3E006E6544656D6F0D0A005243352054657312
:101B4E00740D0A000D0A00504344656D6F0D0A00B6
:101B5E00526563687465636B44656D6F0D0A0000B2
:00000001FF
